:020000040800F2
:10000000800E0020890100084F200008EB1A00082C
:100010004D200008250300082337000800000000D9
:10002000000000000000000000000000FF230008A6
:100030002703000800000000FD2300080124000839
:10004000A3010008A3010008A3010008A301000800
:10005000A3010008A3010008A3010008A3010008F0
:10006000A3010008A3010008A3010008A3010008E0
:10007000A3010008A3010008A3010008A3010008D0
:10008000A3010008A3010008A3010008A3010008C0
:10009000B1360008A3010008A3010008A30100086D
:1000A000A3010008A3010008A3010008A3010008A0
:1000B000A3010008A3010008A3010008A301000890
:1000C000A3010008A3010008A3010008A301000880
:1000D000A3010008B5260008A3010008A301000839
:1000E000A3010008A3010008A301000800F002F822
:1000F00000F03AF80AA090E8000C82448344AAF188
:100100000107DA4501D100F02FF8AFF2090EBAE885
:100110000F0013F0010F18BFFB1A43F0010318473B
:100120000037000020370000103A24BF78C878C19B
:10013000FAD8520724BF30C830C144BF04680C60ED
:10014000704700000023002400250026103A28BF35
:1001500078C1FBD8520728BF30C148BF0B60704739
:100160001FB51FBD10B510BD00F096F81146FFF782
:10017000F7FF03F007FB00F0C8F803B4FFF7F2FF46
:1001800003BC03F0DFFA0000094880470948004734
:10019000FEE7FEE7FEE7FEE7FEE7FEE7FEE7FEE737
:1001A000FEE7FEE704480549054A064B7047000094
:1001B00061240008ED00000880040020800E00206B
:1001C000800A0020800A0020704700000FB4044914
:1001D00010B503AA029800F031F810BC5DF814FBCA
:1001E000000000204FF0000200B5134694469646EA
:1001F000203922BFA0E80C50A0E80C50B1F120013A
:10020000BFF4F7AF090728BFA0E80C5048BF0CC0E7
:100210005DF804EB890028BF40F8042B08BF704745
:1002200048BF20F8022B11F0804F18BF00F8012BB7
:10023000704770477047704770470000074B70B5B4
:100240000D467B4400F011F80446284600F020F8E3
:1002500010B14FF0FF3070BD204670BD0335000077
:1002600001694A1C02610878704700B58FB0CDE97A
:1002700001310021059105497944CDE9031011466A
:10028000684600F02EF80FB000BD0000E5FFFFFF4C
:10029000007B00F080007047754600F03FF8AE46E6
:1002A00005006946534620F00700854618B020B582
:1002B000FFF778FFBDE820404FF000064FF0000741
:1002C0004FF000084FF0000B21F00701AC46ACE8FE
:1002D000C009ACE8C009ACE8C009ACE8C0098D466B
:1002E00070472DE9F04106460024D6E90170F56813
:1002F0008046304603E04146B847641C3046A84774
:100300000028F8D12046BDE8F08110B50446AFF3CF
:1003100000802046BDE81040FFF72FBF004870471F
:1003200020040020FEE7704772B6FEE710B590F893
:1003300021100022022905D00421816380F82020A9
:10034000012010BD01680B6823F00E030B600168EB
:100350000B6823F001030B6090F84030C46B01215F
:1003600001FA03F3636080F8211080F82020104622
:1003700010BD000010B590F821100024022903D010
:100380000421816301243DE001680A6822F00E0225
:100390000A6001680A6822F001020A601A4A0168CC
:1003A000914201D1012121E0174A1432914201D139
:1003B00010211BE0144A2832914201D1891515E021
:1003C000114A3C32914201D189140FE00E4A503259
:1003D000914202D14FF4803108E00B4A64329142DD
:1003E00002D14FF4801101E04FF08071064A083AC3
:1003F0005160012180F82110002180F82010416B0C
:1004000001B18847204610BD0800024070B504467F
:1004100000F004F90546601C02D00448007804444A
:1004200000F0FCF8401BA042FAD370BD040000208D
:100430002DE9F84FDFF8B8910024A9F1040B234609
:100440000F2709F1040AABF1040EC9E00125A5400C
:100450002A40AA427DD1674ED1F804C0ACEB060811
:10046000B44532D014DCBCF1030F3AD009DCBCF146
:10047000000F2AD0BCF1010F1CD0BCF1020F31D10A
:100480001DE0BCF1110F17D0BCF1120F2AD119E0F9
:10049000B8F5881F19D006DCB8F5803F15D0B8F53F
:1004A000801F1FD111E0B8F5001F0ED0B8F5041F52
:1004B00018D10AE0CB6815E0CB681B1D12E0CB68B1
:1004C00008330FE0CB680C330CE08B682BB1012BA9
:1004D0004FF0080303D0456104E0042302E0056106
:1004E00000E00023FF2A01D8064601E000F10406DF
:1004F0004FEA840501D9A5F12005D6F8008007FA56
:1005000005FC28EA0C0803FA05F548EA0508C6F8D0
:1005100000804D68ED0062D5374DAE6946F00106AA
:10052000AE61AD6924F0030605F001050095334D79
:1005300006EB050CDCF80850A607360F07FA06F89C
:1005400025EA0805DFF8B880404503D14FF00008E0
:1005500017E044E0DFF8AC80404502D14FF00108DD
:100560000FE0DFF8A480404502D14FF0020808E018
:10057000DFF89880404502D14FF0030801E04FF0CA
:10058000040808FA06F848EA0508CCF808804D681F
:10059000D9F80060ED024D4601D5164300E09643C0
:1005A0002E604D68DAF80060AD02554601D516435D
:1005B00000E096432E604D68DBF80060AD035D46B9
:1005C00001D5164300E096432E604D68DEF80060CA
:1005D000ED03754601D5164300E096432E60641C7A
:1005E0000D682A46E5407FF431AFBDE8F88F000082
:1005F00008040140000011100010024000000140FA
:1006000000080140000C01400010014000140140AE
:100610000AB1016170470904FBE7000001488068E6
:10062000704700000400002070B5040025D094F845
:100630003D00002520B984F83C50204600F04EF9DA
:10064000242084F83D002068016821F00101016048
:100650002068016841F4004101602068016821F4CC
:100660000041016000F05EFE4D4A6168914201D890
:100670004C4900E04C49884201D2012070BD4B49F1
:100680002368B0FBF1F15E6826F03F060E435E6022
:100690006368934206D94FF4967359434FF47A73C3
:1006A000B1FBF3F12368491C1E6A26F03F06314373
:1006B00019626168914210D84900401EB0FBF1F206
:1006C000521CC2F30B02042A01D2042022E0B0FB28
:1006D000F1F0401CC0F30B001CE0A268F2B301EB88
:1006E000C10303EB0116431EB3FBF6F35B1C43F49B
:1006F00080431B0549D092B301EBC10202EB01110B
:10070000401EB0FBF1F0401CC0F30B0040F48040F1
:1007100040F400402168CA694CF6FF739A431043C5
:10072000C861D4E9071001432068026822F0C002C2
:1007300011430160D4E9030101432068826848F253
:10074000FF339A4311438160D4E9050108432168CE
:10075000CA6822F0FF021043C86001E00EE016E014
:100760002068016841F0010101602564202084F8BF
:100770003D00256384F83E50002070BD01EB41062A
:10078000431EB3FBF6F35B1CB3E70120C2E701EBAA
:100790004101401EB0FBF1F0401CC0F30B00B7E775
:1007A000A086010080841E0000093D0040420F0029
:1007B0002DE9F84F1F4690468A460446DDF82890FA
:1007C000FFF72CFF054694F83D0020287FD1192320
:1007D000012240492046009501F01AFA002876D1FE
:1007E00094F83C00012872D0012084F83C00206875
:1007F0000168C90703D1016841F001010160206867
:10080000016821F400610160212084F83D0010207E
:1008100084F83E0000262664C4F824806785608D35
:1008200020852D48E0622B464A465146204601F07D
:1008300075F990B9206841698069009036E02A46D0
:100840004946204601F08AFA50B1206C042804D1B0
:100850002068016841F4007101600120BDE8F88F53
:10086000606A216800780861606A401C6062618D7E
:10087000491E6185218D491E89B2218522685369EF
:10088000DB435B070BD451B100781061606A401CF8
:100890006062608D401E6085208D401E20852A4646
:1008A0004946204601F088F90028CED1208D002845
:1008B000C5D154F83D0B016841F40071016020205E
:1008C00004F81E09E67766770020C7E7FFE70220F5
:1008D000C4E70000020010000000FFFF10B586B062
:1008E0000021009101910291039100680F49884213
:1008F0001AD10F4CA06940F00800A061A0696946B8
:1009000000F008000490C020009012200190032005
:1009100003900848FFF78CFDE06940F40010E061A7
:10092000E06900F40010049006B010BD00540040CF
:1009300000100240000C0140024881680278114416
:100940008160704704000020074810B5016841F03D
:1009500010010160032000F075F80F2000F006F888
:1009600000F024F8002010BD0020024070B50D4DAD
:1009700004464FF47A712878B1FBF0F00A4909680F
:10098000B1FBF0F000F0A4FE48B9102C07D2002211
:100990002146501E00F036F800206C6070BD01202A
:1009A00070BD000004000020100000200C4808B5B5
:1009B000816941F001018161816901F001010091CA
:1009C000C16941F08051C161C06900F08050009060
:1009D0000448416821F0E06141F00071416008BDC8
:1009E0000010024000000140002809DB00F01F0257
:1009F000012191404009800000F1E020C0F8001181
:100A000070470000F0B40E4B1B680C46C3F3022382
:100A1000C3F10705042D00D90425191D072901D2AA
:100A2000002300E0DB1E012606FA05F1491E2140E5
:100A300099409E40761E16403143F0BC02F072BED3
:100A40000CED00E0064900F0070208684FF6FF03CE
:100A5000184040EA0220034A104308607047000033
:100A60000CED00E00000FA0501EB810200EBC20290
:100A7000D0F8EC02D26B01F0F1BE01EB810200EB89
:100A8000C202D0F8EC02D2F87C2101F04ABF70B566
:100A9000044601F00F006268904201D9012070BD48
:100AA0000B0601F0070000EB800104EBC1014FF0E1
:100AB00001024FF0000503D581F82920283103E019
:100AC00081F8695101F5B4718D70087094F8A8022D
:100AD000012808D084F8A822206802F023FB84F8BB
:100AE000A852002070BD022070BD2DE9F05F04689F
:100AF0005FEA424C0B788D69B4F850C04FF00006A5
:100B00004BF68F7948F2800A48F68F7B48F2C00E88
:100B10004FF480672AD54FF0020808EBC308C4449D
:100B200007EB4C07E45BC4F30904A54203D32D1B78
:100B30008D6101D00BE08E61066836F8235005EA1E
:100B4000090585F4005545EA0A0526F823505206A2
:100B500009D50D78036833F8252002EA0B0242EA32
:100B60000E0223F8252084B30A8929E04FF00608F5
:100B700008EBC308C44407EB4C07E45BC4F3090467
:100B8000A54203D32D1B8D6101D00BE08E61066859
:100B900036F8235005EA090585F4005545EA0A05AB
:100BA00026F82350520609D40B78056835F823201F
:100BB00002EA0B0242EA0E0225F823202CB14A89F0
:100BC00049690068234602F07DFD2046BDE8F09F9C
:100BD0002DE9F05F054600680C465FEA426C164658
:100BE0008B692278B0F850C048F68F774CF28009B4
:100BF0004FF4004B4FF6FF7E4FF4806A4FF0000138
:100C000072D54FF0020808EBC208E0440AEB480C2A
:100C100030F80C00C0F30900834211D91B1AA361FC
:100C20000FD0730407D52E6836F822303B4043EAD4
:100C3000090326F8223094F82420012A47D052E1F3
:100C4000A161607810B1012813D01AE02868B0F8CB
:100C50005030184400EB0210B0F80424C2F309022B
:100C6000A0F80424B0F8042442F40042A0F80424BC
:100C700007E02868B0F85030184400EB0210A0F8E4
:100C800004146278286812B1012A11D018E0B0F873
:100C900050100844217800EB0110B0F80C14C1F397
:100CA0000901A0F80C14B0F80C1441F4004105E05F
:100CB000B0F850201044227800EB0210A0F80C1479
:100CC00021782846FFF7D0FE700472D40BE16269E8
:100CD00002446261E2690244E2612369226A9A4243
:100CE00003D31846111A04E03EE084F824100AB138
:100CF00010462162617811B1012929D031E02968BB
:100D0000B1F850201144227801EB0211B1F804240B
:100D1000C2F30902A1F8042401F204413E2807D9D4
:100D20004209C30600D1521E0B884BEA822207E01B
:100D300048B14208C30700D0521C0B880EEA822239
:100D400013430B800DE00A8842F400420A8008E059
:100D50002968B1F850201144227801EB0211A1F862
:100D6000040483B22289BAE04FF0060808EBC208F7
:100D7000E0440AEB480C30F80C00C0F30900834251
:100D800011D31B1AA3610FD0730407D42E6836F851
:100D900022303B4043EA090326F8223094F824200D
:100DA000012A51D09FE0A161607818B1012814D0C8
:100DB0001BE03FE02868B0F85030184400EB021008
:100DC000B0F80424C2F30902A0F80424B0F8042403
:100DD00042F40042A0F8042407E02868B0F850303C
:100DE000184400EB0210A0F804146278286812B1CD
:100DF000012A11D018E0B0F850100844217800EB17
:100E00000110B0F80C14C1F30901A0F80C14B0F8EB
:100E10000C1441F4004105E0B0F850201044227851
:100E200000EB0210A0F80C1421782846FFF71CFEF6
:100E3000700458D42278296831F82200384040EAFA
:100E4000090021F822004EE0626902446261E26911
:100E50000244E2612369226A9A4203D31846111AB6
:100E6000216204E00AB11046216284F824106278FD
:100E7000296812B1012A28D02FE0B1F8502011447E
:100E8000227801EB0211B1F80C24C2F30902A1F897
:100E90000C2401F20C413E2807D94209C30600D1B7
:100EA000521E0B884BEA822207E048B14208C30772
:100EB00000D0521C0B880EEA822213430B800CE0F8
:100EC0000A8842F400420A8007E0B1F85020114439
:100ED000227801EB0211A1F80C04628983B26169E6
:100EE000286802F00BFC2278296831F8220048F6C5
:100EF000BF73184080F0300048F28003184321F897
:100F000022000020BDE8F09F2DE9F04104460F06C5
:100F100001F0070000EB800104EBC1014FF0010676
:100F20004FF0000503D581F82960283103E081F8EE
:100F3000695101F5B471022B08700A61CB7000D1C0
:100F40000D7194F8A802012809D084F8A8622068DD
:100F500001F098FF284684F8A852BDE8F0810220ED
:100F6000FBE710B501F0070404EB840100EBC101BD
:100F7000C1E95F230022C1F8842181F8692181F849
:100F80006841006801F5B47102F021F9002010BD3C
:100F900070B504460D4601F007006168884201D92A
:100FA000012070BD29064FF000064FF0010207D561
:100FB00000EB800104EBC10181F82920283107E012
:100FC00005EB850104EBC10181F8696101F5B4719C
:100FD0008A70087094F8A802012807D084F8A82223
:100FE000206802F0DBF8680702D006E0022070BD3E
:100FF00004F52C71206802F093F884F8A8620020B0
:1010000070BD10B501F0070404EB840100EBC101D1
:10101000C1E90F23012281F84C208B6400234B642B
:1010200081F8292001F8284F006802F0D0F800204C
:1010300010BD00001FB50446006802F03FFB01042C
:1010400003D5204601F004F81FBD41050DD52068E9
:1010500030F8441F21F480610180204600F084F8BC
:101060000021204600F09BF81FBD410405D52068F3
:1010700030F8441F21F4804174E0810405D52068D4
:1010800030F8441F21F400516CE0C10414D52068ED
:1010900030F8401F21F004010180206830F8401F23
:1010A00021F008010180204600F071F8206830F836
:1010B000441F21F4805155E0010540D5D4F80020AB
:1010C0000020694632F8203021F81030401CC0B2B0
:1010D0000828F7D332F8400F40F001001080206854
:1010E00030F8402F22F0010202802068B0F844203E
:1010F0005205FBD530F8442F22F480620280002094
:10110000236831F8102023F82020401CC0B20828A2
:10111000F6D3206830F8401F41F0080101802068B4
:1011200030F8441F21F400610180206830F8401F2E
:1011300041F004010180204600F04CF81FBD8105FC
:1011400009D5206830F8441F21F400710180204641
:1011500000F021F81FBDC005FCD5206830F8441F01
:1011600021F4807101801FBD70B50446806801259F
:10117000022801D0FFF7D8F82946D4F8EC0201F094
:1011800074FCD4F8EC02BDE8704001F030BCD0F83B
:10119000EC0201F054BCD0F8EC0201F05ABC10B5DE
:1011A000044690F8A80201280BD0012084F8A80278
:1011B00084F82410206802F09BFA002084F8A8022A
:1011C00010BD022010BDD0F8EC2200F52C711046A5
:1011D00001F057BC10B50446D0F8EC0201F087FCD2
:1011E000A069002804D00348016841F006010160AD
:1011F00010BD000010ED00E02DE9F0470F4605009E
:1012000061D0434E306800F00700B84209D2306820
:1012100020F0070038433060306800F00700B84223
:1012200051D128683B4C810712D5400703D560682F
:1012300040F4E06060602878000703D5606840F4FF
:10124000605060606068A96820F0F000084360604A
:101250002878C00728D06868012810D021680228A3
:1012600010D0890700292EDA616821F003010143BB
:101270006160FFF7D3F9804641F288390DE02168BB
:101280008903EFE78901EDE7FFF7C8F9A0EB080153
:10129000494502D90320BDE8F0876068696800F01D
:1012A0000C00B0EB810FEFD1306800F00700B842BE
:1012B0000BD9306820F0070038433060306800F008
:1012C0000700B84201D00120E5E72878400705D59E
:1012D0006068E96820F4E0600843606028780007EF
:1012E00006D56068296920F4605040EAC10060605A
:1012F00000F038F86168084AC1F30311515CC84036
:101300000649086006480068FFF730FB0020C2E786
:1013100000200240001002400638000810000020A3
:10132000080000200448054900684968044AC1F3E0
:101330000221515CC840704710000020001002409C
:10134000163800080448054900684968044AC1F392
:10135000C221515CC84070471000002000100240BC
:10136000163800080E4A51680E4801F00C03042B91
:1013700011D0082B0FD10C48C1F38343C903C05CC3
:101380000AD55168084AC1F34041921E515C054A92
:101390005043B0FBF1F070470449484370470000E8
:1013A0000010024000127A00F637000800093D00E4
:1013B0002DE9F84F040070D02078C04DC00749D007
:1013C0006868C0F38100012807D06868C0F3810015
:1013D000022809D16868C00306D52868800339D57A
:1013E00060680028E7D035E06068B0F5803F0BD03A
:1013F00010B1B0F5A02F11D0286820F480302860FB
:10140000286820F4802002E0286840F480302860BA
:10141000606890B1FFF702F906460AE0286840F4D8
:1014200080202860F0E700BFFFF7F8F8801B6428F1
:1014300073D828688003F7D50CE0FFF7EFF806466D
:1014400005E000BFFFF7EAF8801B6428F0D82868A1
:101450008003F7D420789A4E80074FF001094FF0AF
:10146000000839D5686810F00C0F07D06868C0F321
:101470008100022809D16868C00306D42868800763
:1014800014D52069012808D110E02069B0B1C6F850
:101490000090FFF7C3F8074605E00AE1FFF7BEF842
:1014A000C01B0228C4D828688007F7D5286861695E
:1014B00020F0F80040EAC10028600DE0C6F8008086
:1014C000FFF7ACF8074604E0FFF7A8F8C01B0228B6
:1014D00023D828688007F7D4207800072CD57948CE
:1014E000A169D9B1C0F80090FFF798F8074604E069
:1014F000FFF794F8C01B02280FD8686A8007F7D559
:1015000071484FF4FA510068B0FBF1F0009000BF51
:101510000098411E0091FAD20EE080E0C0F80080F1
:10152000FFF77CF8074604E0FFF778F8C01B0228B5
:1015300075D8686A8007F7D42078400760D5E869D5
:101540000027C00008D4E86940F08050E861E869ED
:10155000012700F0805000905C480168C90513D451
:101560000168834641F480710160FFF757F88246B5
:1015700006E000BFFFF752F8A0EB0A0064284ED83F
:10158000DBF80000C005F5D5E06801280AD008B1F5
:10159000052813D0286A20F001002862286A20F06C
:1015A000040002E0286A40F001002862E06841F28D
:1015B000883B98B1FFF732F882460BE0286A40F08A
:1015C00004002862EEE700BFFFF728F8A0EB0A014D
:1015D00059455AD8286A8007F6D50CE0FFF71EF85F
:1015E000824605E0FFF71AF8A0EB0A0159454CD8EE
:1015F000286A8007F6D41FB1E86920F08050E861BE
:10160000E06988B36968C1F38101022944D00228E6
:10161000C6F8608004D0FFF701F8044638E034E0F3
:10162000FEF7FCFF074604E0FEF7F8FFC01B0228A8
:101630002BD828688001F7D4206AB0F5803F05D107
:101640006868A16820F4003008436860D4E90801A4
:101650000843696821F4741108436860C6F8609013
:10166000FEF7DCFF044606E025E000BFFEF7D6FFEC
:10167000001B022809D828688001F7D51BE000BFAD
:10168000FEF7CCFF001B022802D90320BDE8F88F2B
:1016900028688001F4D40EE00128F7D06868226A37
:1016A00000F48031914204D1616A00F470108842E4
:1016B00001D00120EAE70020E8E700000010024026
:1016C00000004242800442421000002000700040AE
:1016D00010B5401EB0F1807F01D3012010BD4FF046
:1016E000E02460610F21601702F01CF80020A06167
:1016F00007202061002010BD70477047F8B50168D1
:1017000004460868CA684B6910F00F0F4FF00005D7
:1017100059D003F0010602F49077374365D0C10732
:1017200005D0D10503D5616C41F001016164410729
:1017300005D5D90703D0616C41F0020161648107CE
:1017400005D5D90703D0616C41F00401616401073C
:1017500007D502F02001314303D0616C41F008014C
:101760006164616C00293AD0800604D5900602D5E8
:10177000204600F0A5FE20684069616CC0F380102F
:10178000090700D460B3204600F073FE206840696A
:10179000400621D52068143050E8001F21F0400198
:1017A00040E80012002AF5D1E06BA8B16D49416311
:1017B000E06BFEF7DFFD002811D0E06B416B01B05C
:1017C000BDE8F040084783060FD593060DD52046A7
:1017D000BDE8F84000F074BE2046FFF78EFFF8BD6C
:1017E0002046FFF78AFF6564F8BD266B2023012E93
:1017F0007CD1C6067AD5D60678D5086848680090A8
:1018000048694FF00206400640D5E16B0868406821
:101810000004000CE8D0A28D8242E5D9E0858869F9
:1018200020282DD020680C3050E8001F21F4807152
:1018300040E80012002AF5D12068143050E8001F5B
:1018400021F0010140E80012002AF5D1206814308F
:1018500050E8001F21F0400140E80012002AF5D1B5
:1018600084F84230256320680C3050E8001F21F0D6
:10187000100140E80012002AF5D1E06BFEF756FD9A
:101880006663A08DE18D401A81B22AE0A08DE18DC2
:10189000401A81B2E08D0028A6D00029A4D0226889
:1018A0000C3252E8000F20F4907042E80007002F3D
:1018B000F5D12068143050E8002F22F0010240E8F2
:1018C0000027002FF5D184F84230256320680C30C2
:1018D00050E8002F22F0100240E80023002BF5D141
:1018E00066632046FFF708FFF8BDFFE705062BD526
:1018F000150629D594F841002128F5D1A068B0F546
:10190000805F01D12069B0B1206A411C2162216849
:1019100000784860E08C401E0004000CE084E3D1B5
:101920002068C16821F08001C1602068C16841F071
:101930004001C160D8E7206A0088C0F30800486011
:10194000206A801C2062E5E74006CDD55006CBD545
:10195000CA68204622F04002CA6084F8413000F094
:10196000C3F8C1E76324000870B5040004D094F8FC
:101970004100002510B106E0012070BD84F8405000
:10198000204600F023F8242084F841002068C16834
:1019900021F40051C160204600F0F4FD2068016987
:1019A00021F4904101612068416921F02A014161DF
:1019B0002068C16841F40051C1606564202084F84A
:1019C000410084F842006563002070BD30B585B0E9
:1019D00000240094019402940394006818498842FA
:1019E0002CD11848816941F480418161816901F4F9
:1019F00080410491816941F0040181618069124D47
:101A000000F0040004904FF4007000900220019058
:101A10000320039069462846FEF70AFD2815CDE904
:101A20000004694628460294FEF702FD0022114692
:101A30002520FEF7E7FF2520FEF7D6FF05B030BDD5
:101A400000380140001002400008014070472DE9B5
:101A5000F843044690F841001F4616460D462028DC
:101A600002D00220BDE8F8837DB176B10020606429
:101A7000212084F84100FEF7D1FDA6848046E6844B
:101A8000A068B0F5805F02D003E00120EAE720699A
:101A900010B12E4600250EE000260CE080212046E5
:101AA00000F0CCFDA0B9AEB116F8010B216848607A
:101AB000E08C401EE084E08C43464FF0000200972B
:101AC0000028EBD14FF04001204600F0B7FD30B1C7
:101AD0000320C7E735F8020BC0F30800E6E7202033
:101AE00084F841000020BDE77047FEE701684A69BD
:101AF000D24352050FD46FF480624A61002140F84E
:101B0000301F202242738173026942F00402026195
:101B1000017301207047002070470000F8B50446AB
:101B2000C06A1E460D461746082807D0012805D072
:101B300010F5803F02D0206B122804D12068016884
:101B400041F480710160134600224FF001112046DC
:101B5000009600F05DF840B120680068C00502D52D
:101B60004FF4007020640320F8BD2069B0F5804F69
:101B70000ED00620216800EAD51040F0F000086180
:101B800033463A460B49204600F08AF878B902E01D
:101B900005F0FE0000E0E8B221680861054933461F
:101BA0003A46891F204600F07BF80028DCD001204F
:101BB000F8BD00000800010070B516460D46044649
:101BC0001EE02046FFF792FF08B1012070BD681C9F
:101BD00016D0FEF723FD801BA84200D885B92068E7
:101BE0004069C04340070BD5002044F8300F202146
:101BF0006173A073216941F0200121612073E4E742
:101C000020684069C0434007DBD4002070BD00005D
:101C10002DE9F047984617460D460446C1F307469E
:101C2000DDF820902AE000BFB8F1FF3F26D0FEF794
:101C3000F5FCA0EB0901414502D8B8F1000F1DD118
:101C40002068012E16D0806925EA00000004000CEF
:101C500012D00020B84211D1002044F8300F2021CA
:101C60006173A073216941F020012161207301207B
:101C7000BDE8F0874069E7E70120EBE72068012E27
:101C80000AD0806925EA00000004000C06D000207C
:101C9000B842C9D00020EBE74069F3E70120F7E73D
:101CA0002DE9F047984616460D4604464FF00009C8
:101CB0004FF0200AC1F3074723E020684069C04382
:101CC000400515D42068016841F400710160216865
:101CD0006FF480604861C4F8309084F83DA084F8C7
:101CE0003E90216C41F00401216484F83C9021E095
:101CF000701C06D0FEF792FCA0EB0800B04203D89F
:101D000016B1012F1FD021E02068012F15D0806966
:101D100025EA00000004000C18D000BF44F8309FF2
:101D200084F80DA084F80E90216941F02001216112
:101D300084F80C900120BDE8F087406925EA000096
:101D40000004000CEAD12068406901E02068806945
:101D500025EA00000004000CAFD1ECE770B5164690
:101D60000D4604461EE02046FFF7C0FE08B10120E4
:101D700070BD681C16D0FEF751FC801BA84200D82D
:101D800085B920684069C04300060BD5002044F89F
:101D9000300F20216173A073216941F0200121617E
:101DA0002073E4E720684069C0430006DBD40020CC
:101DB00070BD10B50124FF222146782001F0D2FC2D
:101DC000641CE4B2242CF6D900222521BDE8104081
:101DD000782001F0C7BC000070B501244B4E0325EC
:101DE000B4FBF5F005FB104080B9B4FBF5F000EB57
:101DF00040002146325C782001F0B4FC002225210D
:101E0000782001F0AFFC9620FEF700FBB4FBF5F064
:101E100005FB1040012809D1B4FBF5F000EB4000B0
:101E2000304421464278782001F09CFCB4FBF5F068
:101E300005FB1040022809D1B4FBF5F000EB40008F
:101E4000304421468278782001F08CFC641CE4B296
:101E5000242CC5D9012400222146782001F082FCDF
:101E6000641CE4B2242CF6D900222521782001F04C
:101E700079FC0124B4FBF5F005FB104080B9C4EBFC
:101E8000C400C2B2C4F12500C1B2782001F06AFCDE
:101E900000222521782001F065FC9620FEF7B6FA95
:101EA000B4FBF5F005FB1040012809D1A4EBC400F8
:101EB000401EC2B2C4F12500C1B2782001F052FC2C
:101EC000B4FBF5F005FB104002280AD160428021E6
:101ED00001EB4000C2B2C4F12500C1B2782001F08C
:101EE00041FC641CE4B2242CC4D901240022214604
:101EF000782001F037FC641CE4B2242CF6D9BDE84C
:101F0000704000222521782001F02CBC1500002013
:101F10007FB500241F4E4FF4807500940194029405
:101F20002246294630460394FEF772FB01200095B5
:101F3000CDE901040320039069463046FEF778FAA4
:101F4000012229463046FEF763FB2624FF22214664
:101F5000782001F007FC641CE4B2492CF6D9012476
:101F6000FF222146782001F0FDFB641CE4B2242C02
:101F7000F6D900222521782001F0F4FB01224B2123
:101F8000782001F0EFFB01220021782001F0EAFB2C
:101F90007FBD0000000C01400D4808B5816941F08B
:101FA00020018161816901F020010091816941F086
:101FB00004018161816901F004010091816941F0AE
:101FC00008018161806900F00800009008BD0000F0
:101FD000001002400D4810B50B4901600C494160EA
:101FE00000214FF480428160C0E9031241618161A8
:101FF000C1610162FEF718FB002803D0BDE8104064
:10200000FEF792B910BD0000005400403C000020D3
:10201000A08601000C4810B50A4901604FF4E13177
:102020004160002181600C22C160C0E9041281611D
:10203000C161FFF799FC002803D0BDE81040FEF70E
:1020400073B910BD0038014090000020FEE7FEE7A4
:102050002DE9F84F044640F68F7B48F60F794FF490
:1020600080684FF0000AC0E1B0F8441011F00F058D
:1020700039D030F8256031047ED530F8251001EADA
:102080000B0141F0800120F8251005EB850004EBE1
:10209000C00797F8740107F5B47700286DD0F87879
:1020A00002286BD03978226832F8210048F68F7305
:1020B000184048F2C003184322F8210039782068FC
:1020C00030F82120B0F8503052047DD5022202EBC6
:1020D000C1015A1808EB4201415A8905890D009146
:1020E00073D03A89DFE0C9062DD4018801EA0901DD
:1020F00041F400410180206804F12805B0F8503017
:102100002978022202EBC1015A1808EB4201405A19
:10211000C0F309006064E16B0844E06300212046DD
:10212000FEF7A2FC94F8240000289CD0A86900289F
:1021300099D194F82400216840F08000A1F84C0067
:1021400084F824A051E1018804F5B4750A0521D56D
:10215000B0F850202B78062101EBC3010A4408EBAC
:102160004201405A04F52C71C0F30903EB61EA887F
:10217000206801F0A7FA02E0B0E070E080E020689B
:10218000018801EA0B0141F0800101802046FFF740
:102190001AF82AE10904D5D5018801EA0B0141F0BA
:1021A000800101802068B0F850202B78062101EBD7
:1021B000C3010A4408EB4201405A83059B0DEB61C1
:1021C00010D0696971B101E061E05FE0EA882068E0
:1021D00001F078FAE96968690844686100212046DD
:1021E000FEF74BFC216808880205ABD4C0F3013030
:1021F0000328A7D0B1F850000844B0F80C14C1F37C
:102200000901A0F80C142A6900F20C403E2A09D9F1
:102210005109D20600D1491E02884FF4004343EA17
:10222000812109E0B2B15108D20700D0491C0288CF
:102230004FF6FF7303EA81210A4302802168088870
:102240004BF68F72104080F4405048F280021043E9
:102250000880CAE0018841F400410180EEE720686F
:10226000B0F850203B78062101EBC3010A4408EB8B
:102270004201415A8905890D009118D0FA8812E06F
:10228000324639462046FEF730FC00900FE0062229
:1022900002EBC1015A1808EB4201415A8905890D28
:1022A000009104D07A897969009B01F00BFAF869F2
:1022B00000990844F8617969009808447861B86920
:1022C00018B139690098814204D939782046FEF75F
:1022D000D4FB03E03946206800F079FF30062FD5A3
:1022E00005EB850004EBC001206830F8252002EAE8
:1022F000090242F4004220F8252091F82B002831F1
:1023000001281ED0F0056CD42068B0F850300D784C
:10231000022202EBC5021A4408EB4202805A8A6983
:10232000C0F30900824255D9121A8A6154D04A6911
:1023300002444A61CA691044C861206800F047FF3E
:1023400053E0C1F818A0087B524608B3700620D5A8
:10235000487810B1012812D03AE02068B0F8502037
:1023600010440A7800EB0210B0F80424C2F309020A
:10237000A0F80424B0F8042442F4004206E02068E7
:10238000B0F8503018440B7800EB0310A0F8042488
:102390001EE04B78206813B1012B11D018E0B0F883
:1023A000502010440A7800EB0210B0F80C24C2F35D
:1023B0000902A0F80C24B0F80C2442F4004205E015
:1023C000B0F8503018440B7800EB0310A0F80C2440
:1023D000097802E0C1F818A0E9B22046FEF744FBF4
:1023E00003E032462046FEF7F3FB2068B0F84410C5
:1023F00009043FF539AE0020BDE8F88F70477047FB
:10240000FEF79ABA30B58FB028216846FDF7EAFE8C
:1024100014210AA8FDF7E6FE02250120049000958C
:102420001020059000244FF42010CDE908400795B6
:102430006846FEF7BDFF08B172B6FEE70F20CDE992
:102440000A054FF48060CDE90C4001210AA80E94E2
:10245000FEF7D2FE002801D072B6FEE70FB030BD05
:10246000704710B5406A0021C185C184FFF745F966
:1024700010BD01680C3151E8002F22F4907241E840
:102480000023002BF5D10168143151E8002F22F010
:10249000010241E80023002BF5D1016B012909D18C
:1024A00001680C3151E8002F22F0100241E80023AE
:1024B000002BF5D1202180F84210002101637047E4
:1024C00008B590F84210222901D0022008BD826888
:1024D0004FF480539A4201D1016921B1816A9A4235
:1024E0001BD04AB10AE00268816A5268C2F308024E
:1024F0000A80816A891C08E0026972B10268526828
:1025000002F07F020A70816A491C8162C18D491EF6
:102510000904090CC18503D01BE002685268F1E789
:102520000168CA6822F02002CA600168CA6822F401
:102530008072CA6001684A6922F001024A61202162
:1025400080F8421000214163026B012A03D0FFF79B
:102550007DFA002008BD016301680C3151E8002FAD
:1025600022F0100241E80023002BF5D101680A682F
:10257000D20602D50A6849680091818DFFF7BCF840
:10258000E7E7000070B5044600680169E26821F4DD
:102590004051114301612169A06808436169084302
:1025A0002168CA6841F20C639A430243CA602068FA
:1025B0004169A26921F44071114341611E492068BB
:1025C000884202D1FEF7BEFE01E0FEF7ABFE00EB53
:1025D000C00101EB0012606864218000B2FBF0F3DF
:1025E000B3FBF1F36FF018067343B2FBF0F5B2FBE7
:1025F000F0F605EB8305322303EB0515B5FBF1F58A
:10260000B6FBF1F605F0F00505EB0615B2FBF0F6AA
:10261000B2FBF0F0B0FBF1F06FF01802504306EBA4
:10262000800003EB0010B0FBF1F0216800F00F0018
:102630002844886070BD0000003801402DE9F04159
:10264000984617460E460446069D27E0681C25D08E
:102650002DB1FDF7E3FFA0EB0800A8421ED92068CA
:102660000C3050E8001F21F4D07140E80012002A1D
:10267000F5D12068143050E8001F21F0010140E836
:102680000012002AF5D1202084F8410084F842008D
:10269000002084F840000320BDE8F0812068006835
:1026A00036EA000004D00020B842CFD00020F3E783
:1026B0000120F9E70148FFF721B800009000002051
:1026C00010B5D0F8B42252689047002010BD1346D0
:1026D00010B50A46002100F081F9002010BD134614
:1026E00010B50A46002100F00BFA002010BD10B50D
:1026F0000446802100F0F2F92046BDE81040002198
:1027000000F0ECB910B505210023C0F894121A4668
:10271000194600F063F9002010BD10B50223C26114
:10272000C0F89432026213460A46002100F0E8F92C
:10273000002010BD10B504210023C0F894121A46E1
:10274000194600F0DDF9002010BDF8B50446002060
:10275000ADF8000048880D46010A082948D2DFE894
:1027600001F04704091747473C45D4F8B012207CD4
:102770000A6819E0207C02260028D4F8B40205D0AB
:10278000C16A68468847014646703EE0816AF8E7BC
:10279000C0B206282CD2DFE800F0030A1014181C7F
:1027A000D4F8B002426805E0694690471CE0D4F8CE
:1027B000B0028268E2B1207CF6E7D4F8B002C268C9
:1027C000F8E7D4F8B0020269F4E7D4F8B00242693D
:1027D000F0E7D4F8B0028269ECE7207C40B9D4F885
:1027E000B402416B6846884701460EE0207C20B168
:1027F00029462046FFF77BFFF8BDD4F8B402016BF1
:1028000068468847014607204870BDF8000048B177
:10281000EA8852B1824200D90246ADF80020204633
:10282000FFF77BFFE8880028E6D12046FFF782FF0C
:10283000F8BD01004FF0000004D0012901D00229A9
:1028400001D0022070470120704710B5D0F8C002B7
:10285000FEF71DF9BDE81040FFF7EBBF2DE9F04191
:102860001746044651B1D4F8B40242691AB194F83B
:102870009C02032851D00220BDE8F081D4F89432A4
:10288000002504F11400022B03D0042B3AD0C3B36B
:102890003CE0D0E903639E4207D9F11AC1608AB2D5
:1028A00039462046FFF71BFF12E08068B0FBF3F1CA
:1028B00003FB110199B9984211D3D4F898128842B8
:1028C0000DD2002211462046FFF709FFC4F89852A6
:1028D00000231A461946204600F080F816E0D4F886
:1028E000B402C16829B194F89C02032801D12046A2
:1028F00088478021204600F0F1F82046FFF702FFCC
:1029000004E0FFE78021204600F0E8F894F8A002F8
:10291000012804D184F8A05201E02046904700200D
:10292000AAE770B51546044649B1D4F8B4028269E5
:102930001AB194F89C02032830D0022070BDD4F85C
:10294000941204F5AA70032902D005291ED027E0AD
:10295000D0E903218A420BD9531AC3600846834247
:1029600000D303469AB229462046FFF7B0FE17E08F
:10297000D4F8B402016929B194F89C02032801D16A
:10298000204688472046FFF7D5FE09E00020014693
:10299000C4F89402204600F0A1F801E020469047D8
:1029A000002070BD0A0601F07F01D0F8C00201EBE3
:1029B000810100EBC10002D590F82A00704790F821
:1029C0006A01704710B51C461346D0F8C002224673
:1029D000FEF79AFABDE81040FFF72BBF10B5D0F80C
:1029E000C002FEF7BEFABDE81040FFF722BF70B587
:1029F0000022044640231146FFF7E4FF402601254C
:102A0000C4F864613346002280212046C4F858513E
:102A1000FFF7D8FF6662A56184F89C520020C4F8D5
:102A200094026060C4F8A402D4F8B80228B1D4F8C3
:102A3000B4020021426820469047002070BD90F803
:102A40009C12042903D190F89D1280F89C1200205A
:102A5000704710B590F89C12032904D1D0F8B41235
:102A6000C96901B18847002010BD0174002070477A
:102A700010B5D0F8C002FEF792FBBDE81040FFF79A
:102A8000D8BE70B5044600F52A70054600F041F83E
:102A90000120C4F89402B4F8AE02C4F8980294F885
:102AA000A80210F01F010AD001290DD0022910D070
:102AB00000F08001204600F011F8002070BD29468A
:102AC000204600F087F8F8E72946204600F0B3F9E1
:102AD000F3E72946204600F006F9EEE710B5D0F8F6
:102AE000C002FEF755FABDE81040FFF7A2BE90F80D
:102AF0009C1280F89D12042180F89C1200207047DF
:102B000010B5D0F8C002FEF77CFABDE81040FFF720
:102B100090BE0A7802704A7842708A78CB7802EBCD
:102B2000032242800A794B7902EB032282808A7960
:102B3000C97902EB0121C180704710B5D0F8B422E9
:102B400002241AB11268904700B90024204610BD33
:102B500070B50E461E4D897804462970012931D87A
:102B600094F89C0202280BD003280FD0314620464F
:102B7000FFF7BDFD29782046BDE87040FFF7A0BDF6
:102B8000D9B10320616084F89C0209E071B16068EA
:102B9000884212D0C1B22046FFF792FD29786160C9
:102BA0002046FFF7CAFF02280CD006E0022084F876
:102BB0009C0220466160FFF783FD2046BDE870401F
:102BC000FFF7B8BD31462046BDE87040FFF78FBD26
:102BD000140000202DE9F0410A78002612F060026E
:102BE00008D0202A01D0402A70D1D0F8B4229268AF
:102BF00090476DE04B78002201250A2B66D2DFE872
:102C000003F0405D6557650805652C29FFF79DFDBC
:102C10005EE004468888D8B9C888C8B94888802842
:102C200016D200F07F0794F89C02032810D084F895
:102C30009E7239462046FFF71BFF2046FFF77AFDBC
:102C40001FB1022084F89C0242E084F89C523FE0CD
:102C500020463BE0FFF77CFF3AE0CB88012B35D1E3
:102C600090F89C32012B04D0022B02D0032B2DD1E3
:102C700004E08260012200F1080116E00122011D3A
:102C800013E090F89C22012A03D0022A01D0032AE3
:102C90001CD1CA88022A19D1C560D0F8A41209B182
:102CA0000321C160022200F10C01FFF736FD0FE0A5
:102CB000498801290CD1C0F8A45211E090F89C3247
:102CC000012B08D0022B06D0032B04D0FFF70FFDF9
:102CD0003046BDE8F08149880129F9D1C0F8A42225
:102CE000FFF728FDF4E72DE9F0410A460446107885
:102CF0000027097910F060030AD0202B01D0402B67
:102D000050D1D4F8B40211468368204698478FE02A
:102D1000C0F34110012806D05078D0B301282AD042
:102D200003283FD107E0D4F8B40211468368204657
:102D3000BDE8F041184794F89C02022802D003280D
:102D400072D10AE071B380296ED02046FFF7C6FE2B
:102D500080212046FFF7C2FE6AE0508838B931B1C1
:102D6000802904D0D08810B92046FFF7B7FE20464E
:102D7000FFF7E0FC5CE094F89C020228E2D0032814
:102D800052D1508898BB4806F1D02046FFF75DFD30
:102D9000EDE7FFE794F89C020026022803D0032801
:102DA00042D112E040E009B180293DD1080601F08E
:102DB0007F0000EB800004EB800101D5143101E0BD
:102DC00001F5AA7102220E602AE0080601F00F0048
:102DD00000EB800004EB80000AD5806920B301F08D
:102DE0007F0000EB800004EB800514350BE01FE052
:102DF000D0F85801C0B101F07F0000EB800004EB77
:102E0000800505F5AA7541B1802906D02046FFF757
:102E1000C9FD10B10120286000E02E600222294681
:102E20002046FFF77AFC03E011462046FFF75FFCDF
:102E30003846BDE8F08170B5054608780C4610F0BC
:102E4000600003D0202801D0402816D195F89C02BC
:102E5000012803D0022801D003280ED120790128AF
:102E60000BD8D5F8B402826828469047E188014320
:102E700006D12846FFF75EFC02E02846FFF737FC44
:102E8000002070BD2DE9F0470C78002630F8243082
:102E900048F68F121340CA78002A78D0012A7CD0D5
:102EA000022A02D0032A75D0012648F28002134379
:102EB00020F824300D7830F8253048F68F74234000
:102EC0002B43134320F825300D7B48F2C00948F608
:102ED000BF734CF2800A4BF68F77EDB3CD7891F843
:102EE00000C0022D30F82C507DD048F68F6805EADE
:102EF0000805154320F82C50B0F8505091F800C048
:102F0000054405EB0C15B1F808C02CF0010CA5F830
:102F100000C4B0F8505091F800C0054405EB0C1502
:102F2000B1F80AC02CF0010CA5F808C44D78002DAA
:102F30007ED00D7830F825C05FEA4C4C07D530F8CC
:102F400025C00CEA040C4CEA0A0C20F825C091F8C4
:102F500000C030F82C5000E022E06D0606D530F8B5
:102F60002C50254045EA090520F82C50CC780D78E6
:102F7000012C30F8254004EA03047CD084F02003BF
:102F8000134320F82530C1E001E006E002E043F4FD
:102F900000738AE743F4C06387E743F4806384E700
:102FA0004D784DB3B0F850500F78054405EB071538
:102FB000CF8827F00107A5F800740F7830F8275064
:102FC0006D0606D530F82750254045EA090520F85A
:102FD0002750CC78012C07D00C7830F824101940F9
:102FE00081F0200104E064E00C7830F824101940EE
:102FF000114320F8241090E0B0F850300D780344CD
:1030000003EB0513CD8825F00105A3F80854B0F8AB
:1030100050300D78034403EB0513B3F80C54C5F39B
:103020000905A3F80C540D6903F20C433E2D00E092
:1030300045E00BD94FEA551CED0601D1ACF1010C6E
:103040001D884FF4004848EA8C2C0BE035B34FEA5A
:10305000550CED0701D00CF1010C1D884FF6FF78DF
:1030600008EA8C2C45EA0C051D800D7830F82530D7
:103070005B0408D500E046E030F82530234043EA01
:103080000A0320F82530097861B130F821303B403F
:1030900083F40053134320F821303EE01D8845F4AB
:1030A0000045E1E70188394081F440511143018036
:1030B00033E0254048F2801845EA08051AE791F800
:1030C00000C030F82C506D0406D530F82C50254047
:1030D00045EA0A0520F82C5091F800C030F82C5031
:1030E0006D0606D530F82C50254045EA090520F834
:1030F0002C500D7830F825403C4084F44054144363
:1031000020F8254070E7144320F825400B7830F86C
:1031100023103940114320F823103046BDE8F087D2
:103120000020704730B50A7BB2BB4A7848F68F75ED
:1031300048F28004C2B10B7830F82320520607D53C
:1031400030F823202A4048F2C0052A4320F82320E3
:10315000CA78012A20D00A7830F8221048F6BF73C6
:10316000194081F0200114E00A7830F822305B0425
:1031700007D530F822302B404CF280052B4320F845
:1031800022300A7830F822104BF68F73194081F400
:103190004051214320F82210002030BD10B54A785C
:1031A0000978002A48F2800330F8212005D048F63B
:1031B000BF74224082F0100204E04BF68F7422406C
:1031C00082F480521A4320F82120002010BD2DE9FE
:1031D000F0470D464B78097B04464FF0000948F64E
:1031E0008F7248F2800A4FF400474FF6FF78012BA8
:1031F00009D000296FD0E87802286DD001286CD062
:103200000120BDE8F087AE692869864200D90646EC
:1032100091B1E97802291ED0286A801B286228789B
:1032200034F820104906B4F85010214401EB001086
:1032300073D5A0F80C6416E1B3B2EA882046696938
:1032400000F05CFAB4F850002978204400EB01103B
:10325000A0F804640DE1296A814277D9297834F80D
:103260002100104048F28012104324F82100286AFF
:10327000801B2862287834F820104906697871D5B7
:1032800011B101292AD030E0B4F85010214401EBEB
:103290000010B0F80C14C1F30901A0F80C1400F2EE
:1032A0000C403E2E07D97109F20600D1491E028852
:1032B00047EA812107E04EB17108F20700D0491CAE
:1032C000028808EA81210A4302800EE0018841F465
:1032D0000041018009E0F1E020E195E1B4F85020DF
:1032E000111901EB0010A0F80C646A89B3B22046F2
:1032F000696900F003FA6869304468612969286ADD
:10330000884202D9801B286202E00646C5F8209058
:10331000687818B101282BD032E02FE0B4F85000C3
:103320002978204400EB0110B0F80414C1F309011E
:10333000A0F8041400F204403E2E08D97109F206E8
:1033400000D1491E028847EA812108E0A1E056B178
:103350007108F20700D0491C028808EA81210A435B
:1033600002800DE00EE0018841F40041018007E099
:10337000B4F850002978204400EB0110A0F8046450
:103380002A8971E011B1012927D02DE0B4F850103D
:10339000214401EB0010B0F80414C1F30901A0F8B6
:1033A000041400F204403E2E07D97109F20600D140
:1033B000491E028847EA812107E04EB17108F207F1
:1033C00000D0491C028808EA81210A4302800BE0F0
:1033D000018841F40041018006E0B4F85010214416
:1033E00001EB0010A0F804642A89B3B22046696991
:1033F00000F084F96869304468612969286A884264
:1034000002D9801B286202E00646C5F82090687841
:1034100010B1012836D026E0B4F8500029782044B5
:1034200000EB0110B0F80C14C1F30901A0F80C1462
:1034300000F20C403E2E07D97109F20600D1491E58
:10344000028847EA812107E04EB17108F20700D0F7
:10345000491C028808EA81210A43028003E00188AE
:1034600041F4004101806A89B3B22046696900F0E5
:1034700045F9297834F8210048F6BF72104080F0F1
:1034800030000FE1B4F850100819297800EB011052
:10349000CFE62A7834F8220048F68F63184040EAD5
:1034A0000A0024F82200B4F850002A78204400EBE7
:1034B00002108BB2A0F804342A89D6E7A9692869DA
:1034C000814202D9091AA96102E00846C5F818909C
:1034D000B4F850102A78214401EB0211B1F80C2401
:1034E000C2F30902A1F80C2401F20C413E287DD957
:1034F0004209C00600D1521E088847EA82220AE02B
:10350000088840F4004007E04208C00700D0521C81
:10351000088808EA822210430880BBE033BBB4F875
:1035200050002978204400EB0110B0F80414C1F3D6
:103530000901A0F80414296900F204403E2907D9C2
:103540004B09C90600D15B1E018847EA832307E0C7
:1035500041B14B08C90700D05B1C018808EA8323EE
:10356000194302E0018841F400410180687810B1FC
:10357000012828D030E0B4F850002978204400EB2E
:103580000110B0F80C14C1F30901A0F80C1429695A
:1035900000F20C403E2907D94B09C90600D15B1E39
:1035A000018847EA832307E041B14B08C90700D0EF
:1035B0005B1C018808EA8323194302E0018841F477
:1035C0000041018008E0B4F850100819297800EB98
:1035D0000110298AA0F80C14E869C0B3297834F8DE
:1035E0002100430401D5430605D400E046E044F23F
:1035F000400318424ED134F82100104048F2C00276
:10360000104324F8210045E0A9692869814202D9C4
:10361000091AA96102E00846C5F8189013BBB4F86E
:1036200050102A78214401EB0211B1F80424C2F3AE
:103630000902A1F8042401F204413E2808D94209F4
:10364000C30600D1521E0B8847EA822208E021E01F
:1036500078B14208C30700D0521C0B8808EA8222C6
:1036600013430B80697800293FF42EAF012909D05C
:1036700010E00A8842F400420A80F3E700287FF451
:1036800043AF3DE7B4F8502011192A7801EB02113D
:10369000A1F80C04297834F821004BF68F72104001
:1036A00080F4405040EA0A0024F821000020A8E5F8
:1036B0000148FDF7BFBC000030010020B0F8440015
:1036C0007047000010B500EB42005C0800F5806018
:1036D00009D000BF30F8042B01F8012B120A01F8C1
:1036E000012B641EF6D1DA0701D00088087010BDE6
:1036F00011B98021A0F84C100020704710B55B1C58
:1037000000EB42005B0800F5806009D011F8012B46
:1037100011F8014B42EA042220F8042B5B1EF5D17C
:1037200010BDFEE70907090E002804DB00F1E020C8
:1037300080F80014704700F00F0000F1E02080F8DE
:10374000141D70477047000008B502238DF8000073
:10375000012269460248FEF77AF9002008BD000000
:10376000900000201CB514208DF804108DF8052061
:103770000090022301AA78210148FDF719F81CBD29
:103780003C000020FDF7E0F8FEF73CFEFEF704FCED
:10379000FEF720FCFEF73EFCFEF7BAFB4FF4FA748E
:1037A00006A0FCF713FD0CA0FCF710FDFEF714FBC0
:1037B000FEF7FFFA2046FCF729FEF1E7456E746537
:1037C00072206D61696E207768696C65206C6F6F1F
:1037D00070210D0A000000006D61696E2E64656243
:1037E00075673A4D61696E206465627567210A0DDF
:1037F0000A000000010202030405060708090A0B7B
:103800000C0D0E0F1010000000000000000001025F
:103810000304060708090000000001020304000079
:1038200040380008000000203C000000280100088B
:103830007C3800083C000020440E000044010008D1
:103840000000000001000000100000000000000067
:103850000024F40000140A1E32283C50465A323C20
:10386000460E0D0F1110121413151716181A191BE6
:0C3870001D1C1E201F212322240000002C
:04000005080000ED02
:00000001FF
